{
  "contractName": "Certification",
  "abi": [
    {
      "inputs": [],
      "stateMutability": "nonpayable",
      "type": "constructor"
    },
    {
      "anonymous": false,
      "inputs": [
        {
          "indexed": false,
          "internalType": "string",
          "name": "certificate_id",
          "type": "string"
        }
      ],
      "name": "CertificateGenerated",
      "type": "event"
    },
    {
      "anonymous": false,
      "inputs": [
        {
          "indexed": false,
          "internalType": "string",
          "name": "certificate_id",
          "type": "string"
        }
      ],
      "name": "CertificateRevoked",
      "type": "event"
    },
    {
      "anonymous": false,
      "inputs": [
        {
          "indexed": false,
          "internalType": "string",
          "name": "certificate_id",
          "type": "string"
        }
      ],
      "name": "CertificateUpdated",
      "type": "event"
    },
    {
      "inputs": [
        {
          "internalType": "string",
          "name": "",
          "type": "string"
        }
      ],
      "name": "certificates",
      "outputs": [
        {
          "internalType": "string",
          "name": "uid",
          "type": "string"
        },
        {
          "internalType": "string",
          "name": "candidate_name",
          "type": "string"
        },
        {
          "internalType": "string",
          "name": "course_name",
          "type": "string"
        },
        {
          "internalType": "string",
          "name": "org_name",
          "type": "string"
        },
        {
          "internalType": "string",
          "name": "ipfs_hash",
          "type": "string"
        },
        {
          "internalType": "bool",
          "name": "isRevoked",
          "type": "bool"
        }
      ],
      "stateMutability": "view",
      "type": "function",
      "constant": true
    },
    {
      "inputs": [],
      "name": "issuer",
      "outputs": [
        {
          "internalType": "address",
          "name": "",
          "type": "address"
        }
      ],
      "stateMutability": "view",
      "type": "function",
      "constant": true
    },
    {
      "inputs": [
        {
          "internalType": "string",
          "name": "_certificate_id",
          "type": "string"
        },
        {
          "internalType": "string",
          "name": "_uid",
          "type": "string"
        },
        {
          "internalType": "string",
          "name": "_candidate_name",
          "type": "string"
        },
        {
          "internalType": "string",
          "name": "_course_name",
          "type": "string"
        },
        {
          "internalType": "string",
          "name": "_org_name",
          "type": "string"
        },
        {
          "internalType": "string",
          "name": "_ipfs_hash",
          "type": "string"
        }
      ],
      "name": "generateCertificate",
      "outputs": [],
      "stateMutability": "nonpayable",
      "type": "function"
    },
    {
      "inputs": [
        {
          "internalType": "string",
          "name": "_certificate_id",
          "type": "string"
        }
      ],
      "name": "revokeCertificate",
      "outputs": [],
      "stateMutability": "nonpayable",
      "type": "function"
    },
    {
      "inputs": [
        {
          "internalType": "string",
          "name": "_certificate_id",
          "type": "string"
        }
      ],
      "name": "isRevoked",
      "outputs": [
        {
          "internalType": "bool",
          "name": "",
          "type": "bool"
        }
      ],
      "stateMutability": "view",
      "type": "function",
      "constant": true
    },
    {
      "inputs": [
        {
          "internalType": "string",
          "name": "_certificate_id",
          "type": "string"
        },
        {
          "internalType": "string",
          "name": "_uid",
          "type": "string"
        },
        {
          "internalType": "string",
          "name": "_candidate_name",
          "type": "string"
        },
        {
          "internalType": "string",
          "name": "_course_name",
          "type": "string"
        },
        {
          "internalType": "string",
          "name": "_org_name",
          "type": "string"
        },
        {
          "internalType": "string",
          "name": "_ipfs_hash",
          "type": "string"
        }
      ],
      "name": "updateCertificate",
      "outputs": [],
      "stateMutability": "nonpayable",
      "type": "function"
    },
    {
      "inputs": [
        {
          "internalType": "string",
          "name": "_certificate_id",
          "type": "string"
        }
      ],
      "name": "getCertificate",
      "outputs": [
        {
          "internalType": "string",
          "name": "_uid",
          "type": "string"
        },
        {
          "internalType": "string",
          "name": "_candidate_name",
          "type": "string"
        },
        {
          "internalType": "string",
          "name": "_course_name",
          "type": "string"
        },
        {
          "internalType": "string",
          "name": "_org_name",
          "type": "string"
        },
        {
          "internalType": "string",
          "name": "_ipfs_hash",
          "type": "string"
        },
        {
          "internalType": "bool",
          "name": "_isRevoked",
          "type": "bool"
        }
      ],
      "stateMutability": "view",
      "type": "function",
      "constant": true
    },
    {
      "inputs": [
        {
          "internalType": "string",
          "name": "_certificate_id",
          "type": "string"
        }
      ],
      "name": "isVerified",
      "outputs": [
        {
          "internalType": "bool",
          "name": "",
          "type": "bool"
        }
      ],
      "stateMutability": "view",
      "type": "function",
      "constant": true
    },
    {
      "inputs": [
        {
          "internalType": "string",
          "name": "_certificate_id",
          "type": "string"
        },
        {
          "internalType": "string",
          "name": "_uid",
          "type": "string"
        },
        {
          "internalType": "string",
          "name": "_candidate_name",
          "type": "string"
        },
        {
          "internalType": "string",
          "name": "_course_name",
          "type": "string"
        },
        {
          "internalType": "string",
          "name": "_org_name",
          "type": "string"
        }
      ],
      "name": "compareCertificateData",
      "outputs": [
        {
          "internalType": "string",
          "name": "",
          "type": "string"
        }
      ],
      "stateMutability": "view",
      "type": "function",
      "constant": true
    }
  ],
  "bytecode": "0x608060405234801561001057600080fd5b50336000806101000a81548173ffffffffffffffffffffffffffffffffffffffff021916908373ffffffffffffffffffffffffffffffffffffffff1602179055506124cf806100606000396000f3fe608060405234801561001057600080fd5b50600436106100935760003560e01c806335168a001161006657806335168a001461011e578063627956ae1461014e5780638f2b91ea1461016a578063ed0f2e751461019f578063fa479ffd146101d457610093565b8063142e1542146100985780631d143848146100b4578063234c76d5146100d2578063269a63f314610102575b600080fd5b6100b260048036038101906100ad9190611a78565b610204565b005b6100bc6103b1565b6040516100c99190611b02565b60405180910390f35b6100ec60048036038101906100e79190611a78565b6103d5565b6040516100f99190611b38565b60405180910390f35b61011c60048036038101906101179190611b53565b61040f565b005b61013860048036038101906101339190611a78565b610621565b6040516101459190611b38565b60405180910390f35b61016860048036038101906101639190611b53565b610999565b005b610184600480360381019061017f9190611a78565b610bde565b60405161019696959493929190611d10565b60405180910390f35b6101b960048036038101906101b49190611a78565b610ee5565b6040516101cb96959493929190611d10565b60405180910390f35b6101ee60048036038101906101e99190611d94565b61128c565b6040516101fb9190611e9b565b60405180910390f35b60008054906101000a900473ffffffffffffffffffffffffffffffffffffffff1673ffffffffffffffffffffffffffffffffffffffff163373ffffffffffffffffffffffffffffffffffffffff1614610292576040517f08c379a000000000000000000000000000000000000000000000000000000000815260040161028990611f2f565b60405180910390fd5b60006001826040516102a49190611f8b565b9081526020016040518091039020905060008160040180546102c590611fd1565b905003610307576040517f08c379a00000000000000000000000000000000000000000000000000000000081526004016102fe9061204e565b60405180910390fd5b8060050160009054906101000a900460ff1615610359576040517f08c379a0000000000000000000000000000000000000000000000000000000008152600401610350906120ba565b60405180910390fd5b60018160050160006101000a81548160ff0219169083151502179055507f266095b5af7e2323760fef151f1d78896740cd2cc1b73a6357ff9e4c3fdae740826040516103a59190611e9b565b60405180910390a15050565b60008054906101000a900473ffffffffffffffffffffffffffffffffffffffff1681565b6000806001836040516103e89190611f8b565b9081526020016040518091039020600401805461040490611fd1565b905014159050919050565b60008054906101000a900473ffffffffffffffffffffffffffffffffffffffff1673ffffffffffffffffffffffffffffffffffffffff163373ffffffffffffffffffffffffffffffffffffffff161461049d576040517f08c379a000000000000000000000000000000000000000000000000000000000815260040161049490611f2f565b60405180910390fd5b60006001876040516104af9190611f8b565b9081526020016040518091039020905060008160040180546104d090611fd1565b905003610512576040517f08c379a00000000000000000000000000000000000000000000000000000000081526004016105099061204e565b60405180910390fd5b8060050160009054906101000a900460ff1615610564576040517f08c379a000000000000000000000000000000000000000000000000000000000815260040161055b9061214c565b60405180910390fd5b8581600001908051906020019061057c92919061187b565b508481600101908051906020019061059592919061187b565b50838160020190805190602001906105ae92919061187b565b50828160030190805190602001906105c792919061187b565b50818160040190805190602001906105e092919061187b565b507ff12fdb9aaafd44d05209f1fa2ec5b491aa8403a1db76680a5d940f291cb21291876040516106109190611e9b565b60405180910390a150505050505050565b6000806001836040516106349190611f8b565b90815260200160405180910390206040518060c001604052908160008201805461065d90611fd1565b80601f016020809104026020016040519081016040528092919081815260200182805461068990611fd1565b80156106d65780601f106106ab576101008083540402835291602001916106d6565b820191906000526020600020905b8154815290600101906020018083116106b957829003601f168201915b505050505081526020016001820180546106ef90611fd1565b80601f016020809104026020016040519081016040528092919081815260200182805461071b90611fd1565b80156107685780601f1061073d57610100808354040283529160200191610768565b820191906000526020600020905b81548152906001019060200180831161074b57829003601f168201915b5050505050815260200160028201805461078190611fd1565b80601f01602080910402602001604051908101604052809291908181526020018280546107ad90611fd1565b80156107fa5780601f106107cf576101008083540402835291602001916107fa565b820191906000526020600020905b8154815290600101906020018083116107dd57829003601f168201915b5050505050815260200160038201805461081390611fd1565b80601f016020809104026020016040519081016040528092919081815260200182805461083f90611fd1565b801561088c5780601f106108615761010080835404028352916020019161088c565b820191906000526020600020905b81548152906001019060200180831161086f57829003601f168201915b505050505081526020016004820180546108a590611fd1565b80601f01602080910402602001604051908101604052809291908181526020018280546108d190611fd1565b801561091e5780601f106108f35761010080835404028352916020019161091e565b820191906000526020600020905b81548152906001019060200180831161090157829003601f168201915b505050505081526020016005820160009054906101000a900460ff161515151581525050905060008160800151510361098c576040517f08c379a00000000000000000000000000000000000000000000000000000000081526004016109839061204e565b60405180910390fd5b8060a00151915050919050565b60008054906101000a900473ffffffffffffffffffffffffffffffffffffffff1673ffffffffffffffffffffffffffffffffffffffff163373ffffffffffffffffffffffffffffffffffffffff1614610a27576040517f08c379a0000000000000000000000000000000000000000000000000000000008152600401610a1e90611f2f565b60405180910390fd5b6000600187604051610a399190611f8b565b90815260200160405180910390206004018054610a5590611fd1565b905014610a97576040517f08c379a0000000000000000000000000000000000000000000000000000000008152600401610a8e906121de565b60405180910390fd5b60006040518060c0016040528087815260200186815260200185815260200184815260200183815260200160001515815250905080600188604051610adc9190611f8b565b90815260200160405180910390206000820151816000019080519060200190610b0692919061187b565b506020820151816001019080519060200190610b2392919061187b565b506040820151816002019080519060200190610b4092919061187b565b506060820151816003019080519060200190610b5d92919061187b565b506080820151816004019080519060200190610b7a92919061187b565b5060a08201518160050160006101000a81548160ff0219169083151502179055509050507f45c2c0e31a5df12dde47f46b104ed706b348f37c21123e21f674930d20ed16c587604051610bcd9190611e9b565b60405180910390a150505050505050565b600181805160208101820180518482526020830160208501208183528095505050505050600091509050806000018054610c1790611fd1565b80601f0160208091040260200160405190810160405280929190818152602001828054610c4390611fd1565b8015610c905780601f10610c6557610100808354040283529160200191610c90565b820191906000526020600020905b815481529060010190602001808311610c7357829003601f168201915b505050505090806001018054610ca590611fd1565b80601f0160208091040260200160405190810160405280929190818152602001828054610cd190611fd1565b8015610d1e5780601f10610cf357610100808354040283529160200191610d1e565b820191906000526020600020905b815481529060010190602001808311610d0157829003601f168201915b505050505090806002018054610d3390611fd1565b80601f0160208091040260200160405190810160405280929190818152602001828054610d5f90611fd1565b8015610dac5780601f10610d8157610100808354040283529160200191610dac565b820191906000526020600020905b815481529060010190602001808311610d8f57829003601f168201915b505050505090806003018054610dc190611fd1565b80601f0160208091040260200160405190810160405280929190818152602001828054610ded90611fd1565b8015610e3a5780601f10610e0f57610100808354040283529160200191610e3a565b820191906000526020600020905b815481529060010190602001808311610e1d57829003601f168201915b505050505090806004018054610e4f90611fd1565b80601f0160208091040260200160405190810160405280929190818152602001828054610e7b90611fd1565b8015610ec85780601f10610e9d57610100808354040283529160200191610ec8565b820191906000526020600020905b815481529060010190602001808311610eab57829003601f168201915b5050505050908060050160009054906101000a900460ff16905086565b6060806060806060600080600188604051610f009190611f8b565b90815260200160405180910390206040518060c0016040529081600082018054610f2990611fd1565b80601f0160208091040260200160405190810160405280929190818152602001828054610f5590611fd1565b8015610fa25780601f10610f7757610100808354040283529160200191610fa2565b820191906000526020600020905b815481529060010190602001808311610f8557829003601f168201915b50505050508152602001600182018054610fbb90611fd1565b80601f0160208091040260200160405190810160405280929190818152602001828054610fe790611fd1565b80156110345780601f1061100957610100808354040283529160200191611034565b820191906000526020600020905b81548152906001019060200180831161101757829003601f168201915b5050505050815260200160028201805461104d90611fd1565b80601f016020809104026020016040519081016040528092919081815260200182805461107990611fd1565b80156110c65780601f1061109b576101008083540402835291602001916110c6565b820191906000526020600020905b8154815290600101906020018083116110a957829003601f168201915b505050505081526020016003820180546110df90611fd1565b80601f016020809104026020016040519081016040528092919081815260200182805461110b90611fd1565b80156111585780601f1061112d57610100808354040283529160200191611158565b820191906000526020600020905b81548152906001019060200180831161113b57829003601f168201915b5050505050815260200160048201805461117190611fd1565b80601f016020809104026020016040519081016040528092919081815260200182805461119d90611fd1565b80156111ea5780601f106111bf576101008083540402835291602001916111ea565b820191906000526020600020905b8154815290600101906020018083116111cd57829003601f168201915b505050505081526020016005820160009054906101000a900460ff1615151515815250509050600081608001515103611258576040517f08c379a000000000000000000000000000000000000000000000000000000000815260040161124f90612270565b60405180910390fd5b806000015181602001518260400151836060015184608001518560a001519650965096509650965096505091939550919395565b606060006001876040516112a09190611f8b565b90815260200160405180910390206040518060c00160405290816000820180546112c990611fd1565b80601f01602080910402602001604051908101604052809291908181526020018280546112f590611fd1565b80156113425780601f1061131757610100808354040283529160200191611342565b820191906000526020600020905b81548152906001019060200180831161132557829003601f168201915b5050505050815260200160018201805461135b90611fd1565b80601f016020809104026020016040519081016040528092919081815260200182805461138790611fd1565b80156113d45780601f106113a9576101008083540402835291602001916113d4565b820191906000526020600020905b8154815290600101906020018083116113b757829003601f168201915b505050505081526020016002820180546113ed90611fd1565b80601f016020809104026020016040519081016040528092919081815260200182805461141990611fd1565b80156114665780601f1061143b57610100808354040283529160200191611466565b820191906000526020600020905b81548152906001019060200180831161144957829003601f168201915b5050505050815260200160038201805461147f90611fd1565b80601f01602080910402602001604051908101604052809291908181526020018280546114ab90611fd1565b80156114f85780601f106114cd576101008083540402835291602001916114f8565b820191906000526020600020905b8154815290600101906020018083116114db57829003601f168201915b5050505050815260200160048201805461151190611fd1565b80601f016020809104026020016040519081016040528092919081815260200182805461153d90611fd1565b801561158a5780601f1061155f5761010080835404028352916020019161158a565b820191906000526020600020905b81548152906001019060200180831161156d57829003601f168201915b505050505081526020016005820160009054906101000a900460ff16151515158152505090506000816080015151036115f8576040517f08c379a00000000000000000000000000000000000000000000000000000000081526004016115ef90612270565b60405180910390fd5b6000604051806060016040528060228152602001612478602291399050866040516020016116269190611f8b565b6040516020818303038152906040528051906020012082600001516040516020016116519190611f8b565b604051602081830303815290604052805190602001201461168f578060405160200161167d91906122dc565b60405160208183030381529060405290505b856040516020016116a09190611f8b565b6040516020818303038152906040528051906020012082602001516040516020016116cb9190611f8b565b604051602081830303815290604052805190602001201461170957806040516020016116f7919061234a565b60405160208183030381529060405290505b8460405160200161171a9190611f8b565b6040516020818303038152906040528051906020012082604001516040516020016117459190611f8b565b6040516020818303038152906040528051906020012014611783578060405160200161177191906123b8565b60405160208183030381529060405290505b836040516020016117949190611f8b565b6040516020818303038152906040528051906020012082606001516040516020016117bf9190611f8b565b60405160208183030381529060405280519060200120146117fd57806040516020016117eb9190612426565b60405160208183030381529060405290505b7fa87fd17b7cf589c923fabd8029a5d061f82fbb671204be6f6ebc6335b4cccf978160405160200161182f9190611f8b565b604051602081830303815290604052805190602001200361186c576040518060600160405280602f8152602001612449602f913992505050611872565b80925050505b95945050505050565b82805461188790611fd1565b90600052602060002090601f0160209004810192826118a957600085556118f0565b82601f106118c257805160ff19168380011785556118f0565b828001600101855582156118f0579182015b828111156118ef5782518255916020019190600101906118d4565b5b5090506118fd9190611901565b5090565b5b8082111561191a576000816000905550600101611902565b5090565b6000604051905090565b600080fd5b600080fd5b600080fd5b600080fd5b6000601f19601f8301169050919050565b7f4e487b7100000000000000000000000000000000000000000000000000000000600052604160045260246000fd5b6119858261193c565b810181811067ffffffffffffffff821117156119a4576119a361194d565b5b80604052505050565b60006119b761191e565b90506119c3828261197c565b919050565b600067ffffffffffffffff8211156119e3576119e261194d565b5b6119ec8261193c565b9050602081019050919050565b82818337600083830152505050565b6000611a1b611a16846119c8565b6119ad565b905082815260208101848484011115611a3757611a36611937565b5b611a428482856119f9565b509392505050565b600082601f830112611a5f57611a5e611932565b5b8135611a6f848260208601611a08565b91505092915050565b600060208284031215611a8e57611a8d611928565b5b600082013567ffffffffffffffff811115611aac57611aab61192d565b5b611ab884828501611a4a565b91505092915050565b600073ffffffffffffffffffffffffffffffffffffffff82169050919050565b6000611aec82611ac1565b9050919050565b611afc81611ae1565b82525050565b6000602082019050611b176000830184611af3565b92915050565b60008115159050919050565b611b3281611b1d565b82525050565b6000602082019050611b4d6000830184611b29565b92915050565b60008060008060008060c08789031215611b7057611b6f611928565b5b600087013567ffffffffffffffff811115611b8e57611b8d61192d565b5b611b9a89828a01611a4a565b965050602087013567ffffffffffffffff811115611bbb57611bba61192d565b5b611bc789828a01611a4a565b955050604087013567ffffffffffffffff811115611be857611be761192d565b5b611bf489828a01611a4a565b945050606087013567ffffffffffffffff811115611c1557611c1461192d565b5b611c2189828a01611a4a565b935050608087013567ffffffffffffffff811115611c4257611c4161192d565b5b611c4e89828a01611a4a565b92505060a087013567ffffffffffffffff811115611c6f57611c6e61192d565b5b611c7b89828a01611a4a565b9150509295509295509295565b600081519050919050565b600082825260208201905092915050565b60005b83811015611cc2578082015181840152602081019050611ca7565b83811115611cd1576000848401525b50505050565b6000611ce282611c88565b611cec8185611c93565b9350611cfc818560208601611ca4565b611d058161193c565b840191505092915050565b600060c0820190508181036000830152611d2a8189611cd7565b90508181036020830152611d3e8188611cd7565b90508181036040830152611d528187611cd7565b90508181036060830152611d668186611cd7565b90508181036080830152611d7a8185611cd7565b9050611d8960a0830184611b29565b979650505050505050565b600080600080600060a08688031215611db057611daf611928565b5b600086013567ffffffffffffffff811115611dce57611dcd61192d565b5b611dda88828901611a4a565b955050602086013567ffffffffffffffff811115611dfb57611dfa61192d565b5b611e0788828901611a4a565b945050604086013567ffffffffffffffff811115611e2857611e2761192d565b5b611e3488828901611a4a565b935050606086013567ffffffffffffffff811115611e5557611e5461192d565b5b611e6188828901611a4a565b925050608086013567ffffffffffffffff811115611e8257611e8161192d565b5b611e8e88828901611a4a565b9150509295509295909350565b60006020820190508181036000830152611eb58184611cd7565b905092915050565b7f4f6e6c79206973737565722063616e20706572666f726d20746869732061637460008201527f696f6e0000000000000000000000000000000000000000000000000000000000602082015250565b6000611f19602383611c93565b9150611f2482611ebd565b604082019050919050565b60006020820190508181036000830152611f4881611f0c565b9050919050565b600081905092915050565b6000611f6582611c88565b611f6f8185611f4f565b9350611f7f818560208601611ca4565b80840191505092915050565b6000611f978284611f5a565b915081905092915050565b7f4e487b7100000000000000000000000000000000000000000000000000000000600052602260045260246000fd5b60006002820490506001821680611fe957607f821691505b602082108103611ffc57611ffb611fa2565b5b50919050565b7f436572746966696361746520646f6573206e6f74206578697374000000000000600082015250565b6000612038601a83611c93565b915061204382612002565b602082019050919050565b600060208201905081810360008301526120678161202b565b9050919050565b7f436572746966696361746520616c7265616479207265766f6b65640000000000600082015250565b60006120a4601b83611c93565b91506120af8261206e565b602082019050919050565b600060208201905081810360008301526120d381612097565b9050919050565b7f4365727469666963617465206973207265766f6b656420616e642063616e6e6f60008201527f7420626520757064617465640000000000000000000000000000000000000000602082015250565b6000612136602c83611c93565b9150612141826120da565b604082019050919050565b6000602082019050818103600083015261216581612129565b9050919050565b7f43657274696669636174652077697468207468697320494420616c726561647960008201527f2065786973747300000000000000000000000000000000000000000000000000602082015250565b60006121c8602783611c93565b91506121d38261216c565b604082019050919050565b600060208201905081810360008301526121f7816121bb565b9050919050565b7f43657274696669636174652077697468207468697320494420646f6573206e6f60008201527f7420657869737400000000000000000000000000000000000000000000000000602082015250565b600061225a602783611c93565b9150612265826121fe565b604082019050919050565b600060208201905081810360008301526122898161224d565b9050919050565b7f2d20554944206d69736d617463680a0000000000000000000000000000000000600082015250565b60006122c6600f83611f4f565b91506122d182612290565b600f82019050919050565b60006122e88284611f5a565b91506122f3826122b9565b915081905092915050565b7f2d2043616e646964617465204e616d65206d69736d617463680a000000000000600082015250565b6000612334601a83611f4f565b915061233f826122fe565b601a82019050919050565b60006123568284611f5a565b915061236182612327565b915081905092915050565b7f2d20436f75727365204e616d65206d69736d617463680a000000000000000000600082015250565b60006123a2601783611f4f565b91506123ad8261236c565b601782019050919050565b60006123c48284611f5a565b91506123cf82612395565b915081905092915050565b7f2d204f7267616e697a6174696f6e204e616d65206d69736d617463680a000000600082015250565b6000612410601d83611f4f565b915061241b826123da565b601d82019050919050565b60006124328284611f5a565b915061243d82612403565b91508190509291505056fe43657274696669636174652064617461206d6174636865732074686520626c6f636b636861696e207265636f72642e43657274696669636174652044617461204d69736d61746368205265706f72743a0aa264697066735822122095a3aeda54426ca5cb367544858093f16297e7a8554312d447abca52724a42eb64736f6c634300080d0033",
  "immutableReferences": {},
  "source": "// SPDX-License-Identifier: MIT\r\npragma solidity ^0.8.13;\r\n\r\ncontract Certification {\r\n    struct Certificate {\r\n        string uid;\r\n        string candidate_name;\r\n        string course_name;\r\n        string org_name;\r\n        string ipfs_hash;\r\n        bool isRevoked; // New flag to track if certificate is revoked\r\n    }\r\n\r\n    address public issuer;\r\n\r\n    constructor() {\r\n        issuer = msg.sender;\r\n    }\r\n\r\n    modifier onlyIssuer() {\r\n        require(msg.sender == issuer, \"Only issuer can perform this action\");\r\n        _;\r\n    }\r\n\r\n    mapping(string => Certificate) public certificates;\r\n    event CertificateGenerated(string certificate_id);\r\n    event CertificateRevoked(string certificate_id);\r\n    event CertificateUpdated(string certificate_id);\r\n\r\n    // Function to generate and store certificates\r\n    function generateCertificate(\r\n        string memory _certificate_id,\r\n        string memory _uid,\r\n        string memory _candidate_name,\r\n        string memory _course_name,\r\n        string memory _org_name,\r\n        string memory _ipfs_hash\r\n    ) public onlyIssuer {\r\n        require(\r\n            bytes(certificates[_certificate_id].ipfs_hash).length == 0,\r\n            \"Certificate with this ID already exists\"\r\n        );\r\n\r\n        Certificate memory cert = Certificate({\r\n            uid: _uid,\r\n            candidate_name: _candidate_name,\r\n            course_name: _course_name,\r\n            org_name: _org_name,\r\n            ipfs_hash: _ipfs_hash,\r\n            isRevoked: false // Initially not revoked\r\n        });\r\n\r\n        certificates[_certificate_id] = cert;\r\n        emit CertificateGenerated(_certificate_id);\r\n    }\r\n\r\n    // Function to revoke a certificate\r\n    function revokeCertificate(string memory _certificate_id) public onlyIssuer {\r\n        Certificate storage cert = certificates[_certificate_id];\r\n        require(bytes(cert.ipfs_hash).length != 0, \"Certificate does not exist\");\r\n        require(!cert.isRevoked, \"Certificate already revoked\");\r\n\r\n        cert.isRevoked = true; // Mark the certificate as revoked\r\n        emit CertificateRevoked(_certificate_id);\r\n    }\r\n\r\n    // Function to check if a certificate is revoked\r\n    function isRevoked(string memory _certificate_id) public view returns (bool) {\r\n        Certificate memory cert = certificates[_certificate_id];\r\n        require(bytes(cert.ipfs_hash).length != 0, \"Certificate does not exist\");\r\n        return cert.isRevoked;\r\n    }\r\n\r\n    // Function to update a certificate's details\r\n    function updateCertificate(\r\n        string memory _certificate_id,\r\n        string memory _uid,\r\n        string memory _candidate_name,\r\n        string memory _course_name,\r\n        string memory _org_name,\r\n        string memory _ipfs_hash\r\n    ) public onlyIssuer {\r\n        Certificate storage cert = certificates[_certificate_id];\r\n        require(bytes(cert.ipfs_hash).length != 0, \"Certificate does not exist\");\r\n        require(!cert.isRevoked, \"Certificate is revoked and cannot be updated\");\r\n\r\n        cert.uid = _uid;\r\n        cert.candidate_name = _candidate_name;\r\n        cert.course_name = _course_name;\r\n        cert.org_name = _org_name;\r\n        cert.ipfs_hash = _ipfs_hash;\r\n\r\n        emit CertificateUpdated(_certificate_id);\r\n    }\r\n\r\n    // Function to get certificate details from blockchain by certificate ID\r\n    function getCertificate(\r\n        string memory _certificate_id\r\n    )\r\n        public\r\n        view\r\n        returns (\r\n            string memory _uid,\r\n            string memory _candidate_name,\r\n            string memory _course_name,\r\n            string memory _org_name,\r\n            string memory _ipfs_hash,\r\n            bool _isRevoked\r\n        )\r\n    {\r\n        Certificate memory cert = certificates[_certificate_id];\r\n        require(\r\n            bytes(cert.ipfs_hash).length != 0,\r\n            \"Certificate with this ID does not exist\"\r\n        );\r\n\r\n        return (\r\n            cert.uid,\r\n            cert.candidate_name,\r\n            cert.course_name,\r\n            cert.org_name,\r\n            cert.ipfs_hash,\r\n            cert.isRevoked\r\n        );\r\n    }\r\n\r\n    // Function to check if a certificate ID exists on the blockchain\r\n    function isVerified(string memory _certificate_id) public view returns (bool) {\r\n        return bytes(certificates[_certificate_id].ipfs_hash).length != 0;\r\n    }\r\n\r\n    // Function to compare uploaded certificate data with blockchain stored data\r\n    function compareCertificateData(\r\n        string memory _certificate_id,\r\n        string memory _uid,\r\n        string memory _candidate_name,\r\n        string memory _course_name,\r\n        string memory _org_name\r\n    ) public view returns (string memory) {\r\n        Certificate memory cert = certificates[_certificate_id];\r\n        require(\r\n            bytes(cert.ipfs_hash).length != 0,\r\n            \"Certificate with this ID does not exist\"\r\n        );\r\n\r\n        // Compare each field and return mismatch information\r\n        string memory mismatchReport = \"Certificate Data Mismatch Report:\\n\";\r\n        \r\n        if (keccak256(abi.encodePacked(cert.uid)) != keccak256(abi.encodePacked(_uid))) {\r\n            mismatchReport = string(abi.encodePacked(mismatchReport, \"- UID mismatch\\n\"));\r\n        }\r\n        if (keccak256(abi.encodePacked(cert.candidate_name)) != keccak256(abi.encodePacked(_candidate_name))) {\r\n            mismatchReport = string(abi.encodePacked(mismatchReport, \"- Candidate Name mismatch\\n\"));\r\n        }\r\n        if (keccak256(abi.encodePacked(cert.course_name)) != keccak256(abi.encodePacked(_course_name))) {\r\n            mismatchReport = string(abi.encodePacked(mismatchReport, \"- Course Name mismatch\\n\"));\r\n        }\r\n        if (keccak256(abi.encodePacked(cert.org_name)) != keccak256(abi.encodePacked(_org_name))) {\r\n            mismatchReport = string(abi.encodePacked(mismatchReport, \"- Organization Name mismatch\\n\"));\r\n        }\r\n\r\n        // If all fields match, we return a success message\r\n        if (keccak256(abi.encodePacked(mismatchReport)) == keccak256(\"Certificate Data Mismatch Report:\\n\")) {\r\n            return \"Certificate data matches the blockchain record.\";\r\n        }\r\n\r\n        return mismatchReport;\r\n    }\r\n}\r\n",
  "sourcePath": "F:\\blockchain\\pursuit\\old\\pursuit\\contracts\\Certification.sol",
  "compiler": {
    "name": "solc",
    "version": "0.8.13+commit.abaa5c0e.Emscripten.clang"
  },
  "schemaVersion": "3.4.16",
  "updatedAt": "2025-07-25T17:18:53.359Z",
  "networkType": "ethereum",
  "devdoc": {
    "kind": "dev",
    "methods": {},
    "version": 1
  },
  "userdoc": {
    "kind": "user",
    "methods": {},
    "version": 1
  }
}